{
  "contractName": "EventFactory",
  "abi": [
    {
      "inputs": [],
      "name": "eventIndex",
      "outputs": [
        {
          "internalType": "uint256",
          "name": "",
          "type": "uint256"
        }
      ],
      "stateMutability": "view",
      "type": "function"
    },
    {
      "inputs": [
        {
          "internalType": "uint256",
          "name": "",
          "type": "uint256"
        }
      ],
      "name": "events",
      "outputs": [
        {
          "internalType": "address payable",
          "name": "owner",
          "type": "address"
        },
        {
          "internalType": "uint256",
          "name": "eventId",
          "type": "uint256"
        },
        {
          "internalType": "string",
          "name": "name",
          "type": "string"
        },
        {
          "internalType": "uint256",
          "name": "date",
          "type": "uint256"
        },
        {
          "internalType": "uint256",
          "name": "numTickets",
          "type": "uint256"
        },
        {
          "internalType": "uint256",
          "name": "unSoldTickets",
          "type": "uint256"
        },
        {
          "internalType": "uint256",
          "name": "ticketPrice",
          "type": "uint256"
        }
      ],
      "stateMutability": "view",
      "type": "function"
    },
    {
      "inputs": [
        {
          "internalType": "string",
          "name": "_name",
          "type": "string"
        },
        {
          "internalType": "bool",
          "name": "_isProvider",
          "type": "bool"
        }
      ],
      "name": "addUser",
      "outputs": [],
      "stateMutability": "nonpayable",
      "type": "function"
    },
    {
      "inputs": [],
      "name": "deleteUser",
      "outputs": [],
      "stateMutability": "nonpayable",
      "type": "function"
    },
    {
      "inputs": [
        {
          "internalType": "string",
          "name": "_name",
          "type": "string"
        },
        {
          "internalType": "uint256",
          "name": "_date",
          "type": "uint256"
        },
        {
          "internalType": "uint256",
          "name": "_numTickets",
          "type": "uint256"
        },
        {
          "internalType": "uint256",
          "name": "_ticketPrice",
          "type": "uint256"
        }
      ],
      "name": "createEvent",
      "outputs": [],
      "stateMutability": "nonpayable",
      "type": "function"
    },
    {
      "inputs": [
        {
          "internalType": "uint256",
          "name": "_eventId",
          "type": "uint256"
        }
      ],
      "name": "showAvailableTickets",
      "outputs": [
        {
          "internalType": "uint256[]",
          "name": "",
          "type": "uint256[]"
        }
      ],
      "stateMutability": "view",
      "type": "function"
    },
    {
      "inputs": [
        {
          "internalType": "uint256",
          "name": "_eventId",
          "type": "uint256"
        },
        {
          "internalType": "uint256",
          "name": "_ticketNo",
          "type": "uint256"
        }
      ],
      "name": "buyTicket",
      "outputs": [],
      "stateMutability": "nonpayable",
      "type": "function"
    },
    {
      "inputs": [
        {
          "internalType": "uint256",
          "name": "_eventId",
          "type": "uint256"
        },
        {
          "internalType": "uint256",
          "name": "_ticketNo",
          "type": "uint256"
        }
      ],
      "name": "sellTicket",
      "outputs": [],
      "stateMutability": "payable",
      "type": "function"
    }
  ],
  "bytecode": "0x608060405234801561001057600080fd5b506112e3806100206000396000f3fe60806040526004361061007b5760003560e01c806317d18bee1161004e57806317d18bee1461012c578063298ec208146101575780632a6c4c1414610180578063d8d0f35a1461019c5761007b565b8063026ff05e146100805780630374ab0b14610097578063064aa0f3146100c05780630b791430146100e9575b600080fd5b34801561008c57600080fd5b506100956101d9565b005b3480156100a357600080fd5b506100be60048036038101906100b99190610b3c565b610236565b005b3480156100cc57600080fd5b506100e760048036038101906100e29190610bf7565b610452565b005b3480156100f557600080fd5b50610110600480360381019061010b9190610c53565b6104e5565b6040516101239796959493929190610d4f565b60405180910390f35b34801561013857600080fd5b506101416105cf565b60405161014e9190610dc5565b60405180910390f35b34801561016357600080fd5b5061017e60048036038101906101799190610de0565b6105d5565b005b61019a60048036038101906101959190610de0565b61072b565b005b3480156101a857600080fd5b506101c360048036038101906101be9190610c53565b6108bb565b6040516101d09190610ede565b60405180910390f35b6000600260003373ffffffffffffffffffffffffffffffffffffffff1673ffffffffffffffffffffffffffffffffffffffff16815260200190815260200160002060010160016101000a81548160ff021916908315150217905550565b600260003373ffffffffffffffffffffffffffffffffffffffff1673ffffffffffffffffffffffffffffffffffffffff16815260200190815260200160002060010160019054906101000a900460ff1680156102de5750600260003373ffffffffffffffffffffffffffffffffffffffff1673ffffffffffffffffffffffffffffffffffffffff16815260200190815260200160002060010160009054906101000a900460ff165b6102e757600080fd5b600080600060015481526020019081526020016000209050338160000160006101000a81548173ffffffffffffffffffffffffffffffffffffffff021916908373ffffffffffffffffffffffffffffffffffffffff16021790555060015481600101819055508481600201908161035e919061110c565b508381600301819055508281600401819055508281600501819055508181600601819055506000600190505b8381116104325760008260070160008381526020019081526020016000209050338160000160006101000a81548173ffffffffffffffffffffffffffffffffffffffff021916908373ffffffffffffffffffffffffffffffffffffffff160217905550818160010181905550600154816002018190555060008160030160006101000a81548160ff02191690831515021790555050808061042a9061120d565b91505061038a565b50600160008154809291906104469061120d565b91905055505050505050565b6000600260003373ffffffffffffffffffffffffffffffffffffffff1673ffffffffffffffffffffffffffffffffffffffff1681526020019081526020016000209050828160000190816104a6919061110c565b50818160010160006101000a81548160ff02191690831515021790555060018160010160016101000a81548160ff021916908315150217905550505050565b60006020528060005260406000206000915090508060000160009054906101000a900473ffffffffffffffffffffffffffffffffffffffff169080600101549080600201805461053490610f2f565b80601f016020809104026020016040519081016040528092919081815260200182805461056090610f2f565b80156105ad5780601f10610582576101008083540402835291602001916105ad565b820191906000526020600020905b81548152906001019060200180831161059057829003601f168201915b5050505050908060030154908060040154908060050154908060060154905087565b60015481565b600260003373ffffffffffffffffffffffffffffffffffffffff1673ffffffffffffffffffffffffffffffffffffffff16815260200190815260200160002060010160019054906101000a900460ff1661062e57600080fd5b600080600084815260200190815260200160002090508060040154821061065457600080fd5b80600701600083815260200190815260200160002060030160009054906101000a900460ff161561068457600080fd5b600181600701600084815260200190815260200160002060030160006101000a81548160ff0219169083151502179055508060050160008154809291906106ca90611255565b91905055503381600701600084815260200190815260200160002060000160006101000a81548173ffffffffffffffffffffffffffffffffffffffff021916908373ffffffffffffffffffffffffffffffffffffffff160217905550505050565b600080600084815260200190815260200160002090508060040154821061075157600080fd5b3373ffffffffffffffffffffffffffffffffffffffff1681600701600084815260200190815260200160002060000160009054906101000a900473ffffffffffffffffffffffffffffffffffffffff1673ffffffffffffffffffffffffffffffffffffffff16146107c157600080fd5b80600701600083815260200190815260200160002060030160009054906101000a900460ff166107f057600080fd5b600081600701600084815260200190815260200160002060030160006101000a81548160ff0219169083151502179055508060050160008154809291906108369061120d565b91905055508060000160009054906101000a900473ffffffffffffffffffffffffffffffffffffffff1681600701600084815260200190815260200160002060000160006101000a81548173ffffffffffffffffffffffffffffffffffffffff021916908373ffffffffffffffffffffffffffffffffffffffff160217905550505050565b6060600080600084815260200190815260200160002090506000816005015467ffffffffffffffff8111156108f3576108f26109db565b5b6040519080825280602002602001820160405280156109215781602001602082028036833780820191505090505b5090506000805b83600401548110156109a05783600701600082815260200190815260200160002060030160009054906101000a900460ff1661098d57808383815181106109725761097161127e565b5b60200260200101818152505081806109899061120d565b9250505b80806109989061120d565b915050610928565b50819350505050919050565b6000604051905090565b600080fd5b600080fd5b600080fd5b600080fd5b6000601f19601f8301169050919050565b7f4e487b7100000000000000000000000000000000000000000000000000000000600052604160045260246000fd5b610a13826109ca565b810181811067ffffffffffffffff82111715610a3257610a316109db565b5b80604052505050565b6000610a456109ac565b9050610a518282610a0a565b919050565b600067ffffffffffffffff821115610a7157610a706109db565b5b610a7a826109ca565b9050602081019050919050565b82818337600083830152505050565b6000610aa9610aa484610a56565b610a3b565b905082815260208101848484011115610ac557610ac46109c5565b5b610ad0848285610a87565b509392505050565b600082601f830112610aed57610aec6109c0565b5b8135610afd848260208601610a96565b91505092915050565b6000819050919050565b610b1981610b06565b8114610b2457600080fd5b50565b600081359050610b3681610b10565b92915050565b60008060008060808587031215610b5657610b556109b6565b5b600085013567ffffffffffffffff811115610b7457610b736109bb565b5b610b8087828801610ad8565b9450506020610b9187828801610b27565b9350506040610ba287828801610b27565b9250506060610bb387828801610b27565b91505092959194509250565b60008115159050919050565b610bd481610bbf565b8114610bdf57600080fd5b50565b600081359050610bf181610bcb565b92915050565b60008060408385031215610c0e57610c0d6109b6565b5b600083013567ffffffffffffffff811115610c2c57610c2b6109bb565b5b610c3885828601610ad8565b9250506020610c4985828601610be2565b9150509250929050565b600060208284031215610c6957610c686109b6565b5b6000610c7784828501610b27565b91505092915050565b600073ffffffffffffffffffffffffffffffffffffffff82169050919050565b6000610cab82610c80565b9050919050565b610cbb81610ca0565b82525050565b610cca81610b06565b82525050565b600081519050919050565b600082825260208201905092915050565b60005b83811015610d0a578082015181840152602081019050610cef565b60008484015250505050565b6000610d2182610cd0565b610d2b8185610cdb565b9350610d3b818560208601610cec565b610d44816109ca565b840191505092915050565b600060e082019050610d64600083018a610cb2565b610d716020830189610cc1565b8181036040830152610d838188610d16565b9050610d926060830187610cc1565b610d9f6080830186610cc1565b610dac60a0830185610cc1565b610db960c0830184610cc1565b98975050505050505050565b6000602082019050610dda6000830184610cc1565b92915050565b60008060408385031215610df757610df66109b6565b5b6000610e0585828601610b27565b9250506020610e1685828601610b27565b9150509250929050565b600081519050919050565b600082825260208201905092915050565b6000819050602082019050919050565b610e5581610b06565b82525050565b6000610e678383610e4c565b60208301905092915050565b6000602082019050919050565b6000610e8b82610e20565b610e958185610e2b565b9350610ea083610e3c565b8060005b83811015610ed1578151610eb88882610e5b565b9750610ec383610e73565b925050600181019050610ea4565b5085935050505092915050565b60006020820190508181036000830152610ef88184610e80565b905092915050565b7f4e487b7100000000000000000000000000000000000000000000000000000000600052602260045260246000fd5b60006002820490506001821680610f4757607f821691505b602082108103610f5a57610f59610f00565b5b50919050565b60008190508160005260206000209050919050565b60006020601f8301049050919050565b600082821b905092915050565b600060088302610fc27fffffffffffffffffffffffffffffffffffffffffffffffffffffffffffffffff82610f85565b610fcc8683610f85565b95508019841693508086168417925050509392505050565b6000819050919050565b6000611009611004610fff84610b06565b610fe4565b610b06565b9050919050565b6000819050919050565b61102383610fee565b61103761102f82611010565b848454610f92565b825550505050565b600090565b61104c61103f565b61105781848461101a565b505050565b5b8181101561107b57611070600082611044565b60018101905061105d565b5050565b601f8211156110c05761109181610f60565b61109a84610f75565b810160208510156110a9578190505b6110bd6110b585610f75565b83018261105c565b50505b505050565b600082821c905092915050565b60006110e3600019846008026110c5565b1980831691505092915050565b60006110fc83836110d2565b9150826002028217905092915050565b61111582610cd0565b67ffffffffffffffff81111561112e5761112d6109db565b5b6111388254610f2f565b61114382828561107f565b600060209050601f8311600181146111765760008415611164578287015190505b61116e85826110f0565b8655506111d6565b601f19841661118486610f60565b60005b828110156111ac57848901518255600182019150602085019450602081019050611187565b868310156111c957848901516111c5601f8916826110d2565b8355505b6001600288020188555050505b505050505050565b7f4e487b7100000000000000000000000000000000000000000000000000000000600052601160045260246000fd5b600061121882610b06565b91507fffffffffffffffffffffffffffffffffffffffffffffffffffffffffffffffff820361124a576112496111de565b5b600182019050919050565b600061126082610b06565b915060008203611273576112726111de565b5b600182039050919050565b7f4e487b7100000000000000000000000000000000000000000000000000000000600052603260045260246000fdfea26469706673582212203d4679ab99ea2d149321ee5c29c7940bef4dfc530b9f11b5577012676d6c2f7d64736f6c63430008130033",
  "immutableReferences": {},
  "source": "// SPDX-License-Identifier: UNLICENSESED\npragma solidity ^0.8.19;\n\ncontract EventFactory{\n    \n    mapping (uint => Event) public events;\n    uint public eventIndex;\n\n    struct User{\n        string name;\n        bool isProvider;\n        bool doesExist;\n    }\n\n    mapping (address => User) users;\n\n    struct Ticket{\n        address payable owner;\n        uint ticketId;\n        uint eventId;\n        bool isSold;\n    }\n    \n    struct Event{\n        address payable owner;\n        uint eventId;\n        string name;\n        uint date;\n        uint numTickets;\n        uint unSoldTickets;\n        uint ticketPrice;\n        mapping(uint => Ticket) tickets;\n    }\n\n    function addUser(string memory _name, bool _isProvider) public{\n        User storage provider = users[msg.sender];\n        provider.name = _name;\n        provider.isProvider = _isProvider;\n        provider.doesExist = true;\n    }\n\n    function deleteUser() public{\n        users[msg.sender].doesExist = false;\n    }\n\n    \n    function createEvent(string memory _name, uint _date, uint _numTickets, uint _ticketPrice) public{\n        require(users[msg.sender].doesExist && users[msg.sender].isProvider);\n        Event storage e = events[eventIndex];\n        e.owner = payable(msg.sender);\n        e.eventId = eventIndex;\n        e.name = _name;\n        e.date = _date;\n        e.numTickets = _numTickets;\n        e.unSoldTickets = _numTickets;\n        e.ticketPrice = _ticketPrice;\n\n        for(uint i=1; i<=_numTickets; i++){\n            Ticket storage newTicket = e.tickets[i];\n            newTicket.owner = payable(msg.sender);\n            newTicket.ticketId = i;\n            newTicket.eventId = eventIndex;\n            newTicket.isSold = false;\n        }\n        eventIndex++;\n    }\n\n    function showAvailableTickets(uint _eventId) public view returns(uint[] memory){\n        Event storage e = events[_eventId];\n        uint[] memory avail = new uint[](e.unSoldTickets);\n        uint j=0;\n        for(uint i=0; i<e.numTickets; i++){\n            if(!e.tickets[i].isSold){\n                avail[j] = i;\n                j++;\n            }\n        }\n        return avail;\n    }\n    \n    function buyTicket(uint _eventId, uint _ticketNo) public{\n        require(users[msg.sender].doesExist);\n        Event storage e = events[_eventId];\n        require(_ticketNo<e.numTickets);\n        require(!e.tickets[_ticketNo].isSold);\n        e.tickets[_ticketNo].isSold = true;\n        e.unSoldTickets--;\n        e.tickets[_ticketNo].owner = payable(msg.sender);\n    }\n\n    function sellTicket(uint _eventId, uint _ticketNo) public payable{\n        Event storage e = events[_eventId];\n        require(_ticketNo<e.numTickets);\n        require(e.tickets[_ticketNo].owner == msg.sender);\n        require(e.tickets[_ticketNo].isSold);\n\n        e.tickets[_ticketNo].isSold = false;\n        e.unSoldTickets++;\n        e.tickets[_ticketNo].owner = e.owner;\n    }\n}",
  "sourcePath": "E:\\truffle\\contracts\\Ticketsssssss.sol",
  "compiler": {
    "name": "solc",
    "version": "0.8.19+commit.7dd6d404.Emscripten.clang"
  },
  "schemaVersion": "3.4.11",
  "updatedAt": "2023-03-19T11:08:40.274Z",
  "devdoc": {
    "kind": "dev",
    "methods": {},
    "version": 1
  },
  "userdoc": {
    "kind": "user",
    "methods": {},
    "version": 1
  }
}