{
  "contractName": "EventFactory",
  "abi": [
    {
      "inputs": [],
      "name": "eventIndex",
      "outputs": [
        {
          "internalType": "uint256",
          "name": "",
          "type": "uint256"
        }
      ],
      "stateMutability": "view",
      "type": "function",
      "constant": true
    },
    {
      "inputs": [
        {
          "internalType": "uint256",
          "name": "",
          "type": "uint256"
        }
      ],
      "name": "events",
      "outputs": [
        {
          "internalType": "address payable",
          "name": "owner",
          "type": "address"
        },
        {
          "internalType": "uint256",
          "name": "eventId",
          "type": "uint256"
        },
        {
          "internalType": "string",
          "name": "name",
          "type": "string"
        },
        {
          "internalType": "uint256",
          "name": "date",
          "type": "uint256"
        },
        {
          "internalType": "uint256",
          "name": "numTickets",
          "type": "uint256"
        },
        {
          "internalType": "uint256",
          "name": "unSoldTickets",
          "type": "uint256"
        },
        {
          "internalType": "uint256",
          "name": "ticketPrice",
          "type": "uint256"
        },
        {
          "internalType": "string",
          "name": "src",
          "type": "string"
        },
        {
          "internalType": "string",
          "name": "dest",
          "type": "string"
        }
      ],
      "stateMutability": "view",
      "type": "function",
      "constant": true
    },
    {
      "inputs": [
        {
          "internalType": "string",
          "name": "_name",
          "type": "string"
        },
        {
          "internalType": "bool",
          "name": "_isProvider",
          "type": "bool"
        }
      ],
      "name": "addUser",
      "outputs": [],
      "stateMutability": "nonpayable",
      "type": "function"
    },
    {
      "inputs": [],
      "name": "deleteUser",
      "outputs": [],
      "stateMutability": "nonpayable",
      "type": "function"
    },
    {
      "inputs": [
        {
          "internalType": "string",
          "name": "_name",
          "type": "string"
        },
        {
          "internalType": "uint256",
          "name": "_numTickets",
          "type": "uint256"
        },
        {
          "internalType": "uint256",
          "name": "_ticketPrice",
          "type": "uint256"
        },
        {
          "internalType": "string",
          "name": "_src",
          "type": "string"
        },
        {
          "internalType": "string",
          "name": "_dest",
          "type": "string"
        }
      ],
      "name": "createEvent",
      "outputs": [],
      "stateMutability": "nonpayable",
      "type": "function"
    },
    {
      "inputs": [
        {
          "internalType": "string",
          "name": "_src",
          "type": "string"
        },
        {
          "internalType": "string",
          "name": "_dest",
          "type": "string"
        }
      ],
      "name": "showAvailableEvents",
      "outputs": [
        {
          "internalType": "uint256[]",
          "name": "",
          "type": "uint256[]"
        }
      ],
      "stateMutability": "nonpayable",
      "type": "function"
    },
    {
      "inputs": [
        {
          "internalType": "uint256",
          "name": "_eventId",
          "type": "uint256"
        }
      ],
      "name": "showAvailableTickets",
      "outputs": [
        {
          "internalType": "uint256[]",
          "name": "",
          "type": "uint256[]"
        }
      ],
      "stateMutability": "view",
      "type": "function",
      "constant": true
    },
    {
      "inputs": [
        {
          "internalType": "uint256",
          "name": "_eventId",
          "type": "uint256"
        },
        {
          "internalType": "uint256",
          "name": "_ticketNo",
          "type": "uint256"
        }
      ],
      "name": "buyTicket",
      "outputs": [
        {
          "internalType": "uint256",
          "name": "",
          "type": "uint256"
        }
      ],
      "stateMutability": "nonpayable",
      "type": "function"
    },
    {
      "inputs": [
        {
          "internalType": "uint256",
          "name": "_eventId",
          "type": "uint256"
        }
      ],
      "name": "currentPrice",
      "outputs": [
        {
          "internalType": "uint256",
          "name": "",
          "type": "uint256"
        }
      ],
      "stateMutability": "view",
      "type": "function",
      "constant": true
    },
    {
      "inputs": [
        {
          "internalType": "uint256",
          "name": "_eventId",
          "type": "uint256"
        },
        {
          "internalType": "uint256",
          "name": "_ticketNo",
          "type": "uint256"
        }
      ],
      "name": "sellTicket",
      "outputs": [],
      "stateMutability": "payable",
      "type": "function",
      "payable": true
    },
    {
      "inputs": [
        {
          "internalType": "uint256",
          "name": "_eventId",
          "type": "uint256"
        }
      ],
      "name": "recoverFund",
      "outputs": [],
      "stateMutability": "payable",
      "type": "function",
      "payable": true
    },
    {
      "inputs": [],
      "name": "bal",
      "outputs": [
        {
          "internalType": "uint256",
          "name": "",
          "type": "uint256"
        }
      ],
      "stateMutability": "view",
      "type": "function",
      "constant": true
    }
  ],
  "bytecode": "0x608060405234801561001057600080fd5b50611e36806100206000396000f3fe6080604052600436106100a75760003560e01c80633d79d1c8116100645780633d79d1c8146101b55780636d87bbcf146101e05780637a3c4c1714610209578063d2fb446214610246578063d8d0f35a14610262578063e7a473ae1461029f576100a7565b8063026ff05e146100ac578063064aa0f3146100c35780630b791430146100ec57806317d18bee14610131578063298ec2081461015c5780632a6c4c1414610199575b600080fd5b3480156100b857600080fd5b506100c16102dc565b005b3480156100cf57600080fd5b506100ea60048036038101906100e591906112e0565b610339565b005b3480156100f857600080fd5b50610113600480360381019061010e9190611372565b6103cc565b6040516101289998979695949392919061146e565b60405180910390f35b34801561013d57600080fd5b506101466105d2565b6040516101539190611510565b60405180910390f35b34801561016857600080fd5b50610183600480360381019061017e919061152b565b6105d8565b6040516101909190611510565b60405180910390f35b6101b360048036038101906101ae919061152b565b61075c565b005b3480156101c157600080fd5b506101ca61094f565b6040516101d79190611510565b60405180910390f35b3480156101ec57600080fd5b506102076004803603810190610202919061156b565b610957565b005b34801561021557600080fd5b50610230600480360381019061022b9190611372565b610bab565b60405161023d9190611510565b60405180910390f35b610260600480360381019061025b9190611372565b610d51565b005b34801561026e57600080fd5b5061028960048036038101906102849190611372565b610e30565b60405161029691906116f8565b60405180910390f35b3480156102ab57600080fd5b506102c660048036038101906102c1919061171a565b610f21565b6040516102d391906116f8565b60405180910390f35b6000600360003373ffffffffffffffffffffffffffffffffffffffff1673ffffffffffffffffffffffffffffffffffffffff16815260200190815260200160002060010160016101000a81548160ff021916908315150217905550565b6000600360003373ffffffffffffffffffffffffffffffffffffffff1673ffffffffffffffffffffffffffffffffffffffff16815260200190815260200160002090508281600001908161038d919061199e565b50818160010160006101000a81548160ff02191690831515021790555060018160010160016101000a81548160ff021916908315150217905550505050565b60006020528060005260406000206000915090508060000160009054906101000a900473ffffffffffffffffffffffffffffffffffffffff169080600101549080600201805461041b906117c1565b80601f0160208091040260200160405190810160405280929190818152602001828054610447906117c1565b80156104945780601f1061046957610100808354040283529160200191610494565b820191906000526020600020905b81548152906001019060200180831161047757829003601f168201915b5050505050908060030154908060040154908060050154908060060154908060070180546104c1906117c1565b80601f01602080910402602001604051908101604052809291908181526020018280546104ed906117c1565b801561053a5780601f1061050f5761010080835404028352916020019161053a565b820191906000526020600020905b81548152906001019060200180831161051d57829003601f168201915b50505050509080600801805461054f906117c1565b80601f016020809104026020016040519081016040528092919081815260200182805461057b906117c1565b80156105c85780601f1061059d576101008083540402835291602001916105c8565b820191906000526020600020905b8154815290600101906020018083116105ab57829003601f168201915b5050505050905089565b60015481565b600080600080858152602001908152602001600020905080600401548310610635576040517f08c379a000000000000000000000000000000000000000000000000000000000815260040161062c90611abc565b60405180910390fd5b80600901600084815260200190815260200160002060030160009054906101000a900460ff161561069b576040517f08c379a000000000000000000000000000000000000000000000000000000000815260040161069290611b4e565b60405180910390fd5b600181600901600085815260200190815260200160002060030160006101000a81548160ff0219169083151502179055508060050160008154809291906106e190611b9d565b91905055503381600901600085815260200190815260200160002060000160006101000a81548173ffffffffffffffffffffffffffffffffffffffff021916908373ffffffffffffffffffffffffffffffffffffffff1602179055506000808581526020019081526020016000206005015491505092915050565b600080600084815260200190815260200160002090508060040154821061078257600080fd5b3373ffffffffffffffffffffffffffffffffffffffff1681600901600084815260200190815260200160002060000160009054906101000a900473ffffffffffffffffffffffffffffffffffffffff1673ffffffffffffffffffffffffffffffffffffffff16146107f257600080fd5b80600901600083815260200190815260200160002060030160009054906101000a900460ff1661082157600080fd5b600081600901600084815260200190815260200160002060030160006101000a81548160ff02191690831515021790555080600501600081548092919061086790611bc6565b91905055508060000160009054906101000a900473ffffffffffffffffffffffffffffffffffffffff1681600901600084815260200190815260200160002060000160006101000a81548173ffffffffffffffffffffffffffffffffffffffff021916908373ffffffffffffffffffffffffffffffffffffffff1602179055503373ffffffffffffffffffffffffffffffffffffffff166108fc600a836006015460036109149190611c0e565b61091e9190611c7f565b9081150290604051600060405180830381858888f19350505050158015610949573d6000803e3d6000fd5b50505050565b600047905090565b600360003373ffffffffffffffffffffffffffffffffffffffff1673ffffffffffffffffffffffffffffffffffffffff16815260200190815260200160002060010160019054906101000a900460ff1680156109ff5750600360003373ffffffffffffffffffffffffffffffffffffffff1673ffffffffffffffffffffffffffffffffffffffff16815260200190815260200160002060010160009054906101000a900460ff165b610a0857600080fd5b600080600060015481526020019081526020016000209050338160000160006101000a81548173ffffffffffffffffffffffffffffffffffffffff021916908373ffffffffffffffffffffffffffffffffffffffff160217905550600154816001018190555085816002019081610a7f919061199e565b50428160030181905550848160040181905550848160050181905550670de0b6b3a764000084610aaf9190611c0e565b816006018190555082816007019081610ac8919061199e565b5081816008019081610ada919061199e565b506000600190505b858111610b8a5760008260090160008381526020019081526020016000209050338160000160006101000a81548173ffffffffffffffffffffffffffffffffffffffff021916908373ffffffffffffffffffffffffffffffffffffffff160217905550818160010181905550600154816002018190555060008160030160006101000a81548160ff021916908315150217905550508080610b8290611bc6565b915050610ae2565b5060016000815480929190610b9e90611bc6565b9190505550505050505050565b6000806000808481526020019081526020016000209050600a81600401546009610bd59190611c0e565b610bdf9190611c7f565b81600501541115610bf7578060060154915050610d4c565b600a81600401546008610c0a9190611c0e565b610c149190611c7f565b81600501541115610c4457600a8160060154600b610c329190611c0e565b610c3c9190611c7f565b915050610d4c565b600a81600401546007610c579190611c0e565b610c619190611c7f565b81600501541115610c9157600a8160060154600c610c7f9190611c0e565b610c899190611c7f565b915050610d4c565b600a81600401546006610ca49190611c0e565b610cae9190611c7f565b81600501541115610cde57600a8160060154600d610ccc9190611c0e565b610cd69190611c7f565b915050610d4c565b600a81600401546005610cf19190611c0e565b610cfb9190611c7f565b81600501541115610d2b57600a8160060154600e610d199190611c0e565b610d239190611c7f565b915050610d4c565b600a8160060154600f610d3e9190611c0e565b610d489190611c7f565b9150505b919050565b600080600083815260200190815260200160002090503373ffffffffffffffffffffffffffffffffffffffff168160000160009054906101000a900473ffffffffffffffffffffffffffffffffffffffff1673ffffffffffffffffffffffffffffffffffffffff1614610dc357600080fd5b3373ffffffffffffffffffffffffffffffffffffffff166108fc826006015483600501548460040154610df69190611cb0565b610e009190611c0e565b9081150290604051600060405180830381858888f19350505050158015610e2b573d6000803e3d6000fd5b505050565b6060600080600084815260200190815260200160002090506000816005015467ffffffffffffffff811115610e6857610e6761117d565b5b604051908082528060200260200182016040528015610e965781602001602082028036833780820191505090505b5090506000805b8360040154811015610f155783600901600082815260200190815260200160002060030160009054906101000a900460ff16610f025780838381518110610ee757610ee6611ce4565b5b6020026020010181815250508180610efe90611bc6565b9250505b8080610f0d90611bc6565b915050610e9d565b50819350505050919050565b606060026000610f319190611110565b60006002905060005b60015481101561105357600080828152602001908152602001600020600701604051602001610f699190611da1565b6040516020818303038152906040528051906020012085604051602001610f909190611de9565b604051602081830303815290604052805190602001201480156110125750600080828152602001908152602001600020600801604051602001610fd39190611da1565b6040516020818303038152906040528051906020012084604051602001610ffa9190611de9565b60405160208183030381529060405280519060200120145b1561104057818190806001815401808255809150506001900390600052602060002001600090919091909150555b808061104b90611bc6565b915050610f3a565b506000818054905067ffffffffffffffff8111156110745761107361117d565b5b6040519080825280602002602001820160405280156110a25781602001602082028036833780820191505090505b50905060005b8280549050811015611104578281815481106110c7576110c6611ce4565b5b90600052602060002001548282815181106110e5576110e4611ce4565b5b60200260200101818152505080806110fc90611bc6565b9150506110a8565b50809250505092915050565b508054600082559060005260206000209081019061112e9190611131565b50565b5b8082111561114a576000816000905550600101611132565b5090565b6000604051905090565b600080fd5b600080fd5b600080fd5b600080fd5b6000601f19601f8301169050919050565b7f4e487b7100000000000000000000000000000000000000000000000000000000600052604160045260246000fd5b6111b58261116c565b810181811067ffffffffffffffff821117156111d4576111d361117d565b5b80604052505050565b60006111e761114e565b90506111f382826111ac565b919050565b600067ffffffffffffffff8211156112135761121261117d565b5b61121c8261116c565b9050602081019050919050565b82818337600083830152505050565b600061124b611246846111f8565b6111dd565b90508281526020810184848401111561126757611266611167565b5b611272848285611229565b509392505050565b600082601f83011261128f5761128e611162565b5b813561129f848260208601611238565b91505092915050565b60008115159050919050565b6112bd816112a8565b81146112c857600080fd5b50565b6000813590506112da816112b4565b92915050565b600080604083850312156112f7576112f6611158565b5b600083013567ffffffffffffffff8111156113155761131461115d565b5b6113218582860161127a565b9250506020611332858286016112cb565b9150509250929050565b6000819050919050565b61134f8161133c565b811461135a57600080fd5b50565b60008135905061136c81611346565b92915050565b60006020828403121561138857611387611158565b5b60006113968482850161135d565b91505092915050565b600073ffffffffffffffffffffffffffffffffffffffff82169050919050565b60006113ca8261139f565b9050919050565b6113da816113bf565b82525050565b6113e98161133c565b82525050565b600081519050919050565b600082825260208201905092915050565b60005b8381101561142957808201518184015260208101905061140e565b60008484015250505050565b6000611440826113ef565b61144a81856113fa565b935061145a81856020860161140b565b6114638161116c565b840191505092915050565b600061012082019050611484600083018c6113d1565b611491602083018b6113e0565b81810360408301526114a3818a611435565b90506114b260608301896113e0565b6114bf60808301886113e0565b6114cc60a08301876113e0565b6114d960c08301866113e0565b81810360e08301526114eb8185611435565b90508181036101008301526115008184611435565b90509a9950505050505050505050565b600060208201905061152560008301846113e0565b92915050565b6000806040838503121561154257611541611158565b5b60006115508582860161135d565b92505060206115618582860161135d565b9150509250929050565b600080600080600060a0868803121561158757611586611158565b5b600086013567ffffffffffffffff8111156115a5576115a461115d565b5b6115b18882890161127a565b95505060206115c28882890161135d565b94505060406115d38882890161135d565b935050606086013567ffffffffffffffff8111156115f4576115f361115d565b5b6116008882890161127a565b925050608086013567ffffffffffffffff8111156116215761162061115d565b5b61162d8882890161127a565b9150509295509295909350565b600081519050919050565b600082825260208201905092915050565b6000819050602082019050919050565b61166f8161133c565b82525050565b60006116818383611666565b60208301905092915050565b6000602082019050919050565b60006116a58261163a565b6116af8185611645565b93506116ba83611656565b8060005b838110156116eb5781516116d28882611675565b97506116dd8361168d565b9250506001810190506116be565b5085935050505092915050565b60006020820190508181036000830152611712818461169a565b905092915050565b6000806040838503121561173157611730611158565b5b600083013567ffffffffffffffff81111561174f5761174e61115d565b5b61175b8582860161127a565b925050602083013567ffffffffffffffff81111561177c5761177b61115d565b5b6117888582860161127a565b9150509250929050565b7f4e487b7100000000000000000000000000000000000000000000000000000000600052602260045260246000fd5b600060028204905060018216806117d957607f821691505b6020821081036117ec576117eb611792565b5b50919050565b60008190508160005260206000209050919050565b60006020601f8301049050919050565b600082821b905092915050565b6000600883026118547fffffffffffffffffffffffffffffffffffffffffffffffffffffffffffffffff82611817565b61185e8683611817565b95508019841693508086168417925050509392505050565b6000819050919050565b600061189b6118966118918461133c565b611876565b61133c565b9050919050565b6000819050919050565b6118b583611880565b6118c96118c1826118a2565b848454611824565b825550505050565b600090565b6118de6118d1565b6118e98184846118ac565b505050565b5b8181101561190d576119026000826118d6565b6001810190506118ef565b5050565b601f82111561195257611923816117f2565b61192c84611807565b8101602085101561193b578190505b61194f61194785611807565b8301826118ee565b50505b505050565b600082821c905092915050565b600061197560001984600802611957565b1980831691505092915050565b600061198e8383611964565b9150826002028217905092915050565b6119a7826113ef565b67ffffffffffffffff8111156119c0576119bf61117d565b5b6119ca82546117c1565b6119d5828285611911565b600060209050601f831160018114611a0857600084156119f6578287015190505b611a008582611982565b865550611a68565b601f198416611a16866117f2565b60005b82811015611a3e57848901518255600182019150602085019450602081019050611a19565b86831015611a5b5784890151611a57601f891682611964565b8355505b6001600288020188555050505b505050505050565b7f5469636b6574204e6f2e20646f65736e27742065786973740000000000000000600082015250565b6000611aa66018836113fa565b9150611ab182611a70565b602082019050919050565b60006020820190508181036000830152611ad581611a99565b9050919050565b7f54686973207469636b657420697320736f6c646f75742063686f6f736520616e60008201527f6f74686572207365617400000000000000000000000000000000000000000000602082015250565b6000611b38602a836113fa565b9150611b4382611adc565b604082019050919050565b60006020820190508181036000830152611b6781611b2b565b9050919050565b7f4e487b7100000000000000000000000000000000000000000000000000000000600052601160045260246000fd5b6000611ba88261133c565b915060008203611bbb57611bba611b6e565b5b600182039050919050565b6000611bd18261133c565b91507fffffffffffffffffffffffffffffffffffffffffffffffffffffffffffffffff8203611c0357611c02611b6e565b5b600182019050919050565b6000611c198261133c565b9150611c248361133c565b9250828202611c328161133c565b91508282048414831517611c4957611c48611b6e565b5b5092915050565b7f4e487b7100000000000000000000000000000000000000000000000000000000600052601260045260246000fd5b6000611c8a8261133c565b9150611c958361133c565b925082611ca557611ca4611c50565b5b828204905092915050565b6000611cbb8261133c565b9150611cc68361133c565b9250828203905081811115611cde57611cdd611b6e565b5b92915050565b7f4e487b7100000000000000000000000000000000000000000000000000000000600052603260045260246000fd5b600081905092915050565b60008154611d2b816117c1565b611d358186611d13565b94506001821660008114611d505760018114611d6557611d98565b60ff1983168652811515820286019350611d98565b611d6e856117f2565b60005b83811015611d9057815481890152600182019150602081019050611d71565b838801955050505b50505092915050565b6000611dad8284611d1e565b915081905092915050565b6000611dc3826113ef565b611dcd8185611d13565b9350611ddd81856020860161140b565b80840191505092915050565b6000611df58284611db8565b91508190509291505056fea2646970667358221220e7744ffb76e1a71d33c8b8f898a9369b62a6e0d9d47849ef65127dd49da1ec2f64736f6c63430008130033",
  "immutableReferences": {},
  "source": "// SPDX-License-Identifier: UNLICENSESED\r\npragma solidity ^0.8.19;\r\n\r\n\r\ncontract EventFactory{\r\n    mapping (uint => Event) public events;\r\n    uint public eventIndex;\r\n    uint[] ats;\r\n\r\n    struct User{\r\n        string name;\r\n        bool isProvider;\r\n        bool doesExist;\r\n    }\r\n\r\n    mapping (address => User) users;\r\n\r\n    struct Ticket{\r\n        address payable owner;\r\n        uint ticketId;\r\n        uint eventId;\r\n        bool isSold;\r\n    }\r\n    struct Event{\r\n        address payable owner;\r\n        uint eventId;\r\n        string name;\r\n        uint date;\r\n        uint numTickets;\r\n        uint unSoldTickets;\r\n        uint ticketPrice;\r\n        string src;\r\n        string dest;\r\n        mapping(uint => Ticket) tickets;\r\n    }\r\n\r\n    function addUser(string memory _name, bool _isProvider) public{\r\n        User storage provider = users[msg.sender];\r\n        provider.name = _name;\r\n        provider.isProvider = _isProvider;\r\n        provider.doesExist = true;\r\n    }\r\n\r\n    function deleteUser() public{\r\n        users[msg.sender].doesExist = false;\r\n    }\r\n\r\n    function createEvent(string memory _name, uint _numTickets, uint _ticketPrice, string memory _src, string memory _dest) public{\r\n        require(users[msg.sender].doesExist && users[msg.sender].isProvider);\r\n        Event storage e = events[eventIndex];\r\n        e.owner = payable(msg.sender);\r\n        e.eventId = eventIndex;\r\n        e.name = _name;\r\n        e.date = block.timestamp;\r\n        e.numTickets = _numTickets;\r\n        e.unSoldTickets = _numTickets;\r\n        e.ticketPrice = _ticketPrice*10**18;\r\n        e.src = _src;\r\n        e.dest = _dest;\r\n        for(uint i=1; i<=_numTickets; i++){\r\n            Ticket storage newTicket = e.tickets[i];\r\n            newTicket.owner = payable(msg.sender);\r\n            newTicket.ticketId = i;\r\n            newTicket.eventId = eventIndex;\r\n            newTicket.isSold = false;\r\n        }\r\n        eventIndex++;\r\n    }\r\n\r\n    function showAvailableEvents(string memory _src, string memory _dest) public returns(uint[] memory){\r\n        delete ats;\r\n        uint[] storage avail = ats;\r\n        for(uint i=0; i<eventIndex; i++){\r\n            if(keccak256(abi.encodePacked((_src))) == keccak256(abi.encodePacked((events[i].src))) && keccak256(abi.encodePacked((_dest))) == keccak256(abi.encodePacked((events[i].dest)))){\r\n                avail.push(i);\r\n            }\r\n        }\r\n        uint[] memory available = new uint[](avail.length);\r\n        for(uint i=0; i<avail.length; i++){\r\n            available[i] = avail[i];\r\n        }\r\n        return available;\r\n    }\r\n\r\n    function showAvailableTickets(uint _eventId) public view returns(uint[] memory){\r\n        Event storage e = events[_eventId];\r\n        uint[] memory avail = new uint[](e.unSoldTickets);\r\n        uint j=0;\r\n        for(uint i=0; i<e.numTickets; i++){\r\n            if(!e.tickets[i].isSold){\r\n                avail[j] = i;\r\n                j++;\r\n            }\r\n        }\r\n        return avail;\r\n    }\r\n    function buyTicket(uint _eventId, uint _ticketNo) public returns(uint) {\r\n        //require(users[msg.sender].doesExist);\r\n        Event storage e = events[_eventId];\r\n       // require(currentPrice(_eventId) <= msg.value, \"The Price of Ticket doesn't match\");\r\n       require(_ticketNo<e.numTickets, \"Ticket No. doesn't exist\");\r\n       require(!e.tickets[_ticketNo].isSold, \"This ticket is soldout choose another seat\");\r\n        e.tickets[_ticketNo].isSold = true;\r\n        e.unSoldTickets--;\r\n        e.tickets[_ticketNo].owner = payable(msg.sender);\r\n        return events[_eventId].unSoldTickets;\r\n    }\r\n\r\n    function currentPrice(uint _eventId) public view returns(uint){\r\n        Event storage e = events[_eventId];\r\n        if(e.unSoldTickets > 9*e.numTickets/10){\r\n            return e.ticketPrice;\r\n        }\r\n        else if(e.unSoldTickets > 8*e.numTickets/10){\r\n            return 11*e.ticketPrice/10;\r\n        }\r\n        else if(e.unSoldTickets > 7*e.numTickets/10){\r\n            return 12*e.ticketPrice/10;\r\n        }\r\n        else if(e.unSoldTickets > 6*e.numTickets/10){\r\n            return 13*e.ticketPrice/10;\r\n        }\r\n        else if(e.unSoldTickets > 5*e.numTickets/10){\r\n            return 14*e.ticketPrice/10;\r\n        }\r\n        else return 15*e.ticketPrice/10;\r\n    }\r\n\r\n    function sellTicket(uint _eventId, uint _ticketNo) public payable{\r\n        Event storage e = events[_eventId];\r\n        require(_ticketNo<e.numTickets);\r\n        require(e.tickets[_ticketNo].owner == msg.sender);\r\n        require(e.tickets[_ticketNo].isSold);\r\n\r\n        e.tickets[_ticketNo].isSold = false;\r\n        e.unSoldTickets++;\r\n        e.tickets[_ticketNo].owner = e.owner;\r\n        payable(msg.sender).transfer(3*e.ticketPrice/10);\r\n    }\r\n\r\n    function recoverFund(uint _eventId) public payable{\r\n        Event storage e = events[_eventId];\r\n        require(e.owner == msg.sender);\r\n        payable(msg.sender).transfer((e.numTickets - e.unSoldTickets)*e.ticketPrice);\r\n    }\r\n\r\n    function bal() public view returns(uint){\r\n        return address(this).balance;\r\n    }\r\n}\r\n",
  "sourcePath": "E:\\Sandeep\\Desktop\\SEM6\\CS731A\\CS731_workspace\\contracts\\Ticketsssssss.sol",
  "compiler": {
    "name": "solc",
    "version": "0.8.19+commit.7dd6d404.Emscripten.clang"
  },
  "schemaVersion": "3.4.13",
  "updatedAt": "2023-03-31T03:21:01.360Z",
  "networkType": "ethereum",
  "devdoc": {
    "kind": "dev",
    "methods": {},
    "version": 1
  },
  "userdoc": {
    "kind": "user",
    "methods": {},
    "version": 1
  }
}